{
  "contracts/TestTransientStorage.sol": {
    "TestTransientStorage": {
      "abi": [
        {
          "inputs": [],
          "stateMutability": "nonpayable",
          "type": "constructor"
        },
        {
          "inputs": [
            {
              "internalType": "uint256",
              "name": "found",
              "type": "uint256"
            },
            {
              "internalType": "uint256",
              "name": "expected",
              "type": "uint256"
            }
          ],
          "name": "ValueDoesNotMatch",
          "type": "error"
        },
        {
          "anonymous": false,
          "inputs": [
            {
              "indexed": false,
              "internalType": "uint256",
              "name": "value",
              "type": "uint256"
            }
          ],
          "name": "ValueStored",
          "type": "event"
        },
        {
          "inputs": [],
          "name": "executor",
          "outputs": [
            {
              "internalType": "contract Reader",
              "name": "",
              "type": "address"
            }
          ],
          "stateMutability": "view",
          "type": "function"
        },
        {
          "inputs": [
            {
              "internalType": "enum StoredValue.TestMode",
              "name": "testMode",
              "type": "uint8"
            }
          ],
          "name": "read",
          "outputs": [
            {
              "internalType": "uint256",
              "name": "",
              "type": "uint256"
            }
          ],
          "stateMutability": "view",
          "type": "function"
        },
        {
          "inputs": [],
          "name": "readTransientValue",
          "outputs": [
            {
              "internalType": "uint256",
              "name": "",
              "type": "uint256"
            }
          ],
          "stateMutability": "view",
          "type": "function"
        },
        {
          "inputs": [],
          "name": "storageValue",
          "outputs": [
            {
              "internalType": "uint256",
              "name": "",
              "type": "uint256"
            }
          ],
          "stateMutability": "view",
          "type": "function"
        },
        {
          "inputs": [],
          "name": "testStorage",
          "outputs": [],
          "stateMutability": "nonpayable",
          "type": "function"
        },
        {
          "inputs": [],
          "name": "testStorageSlot",
          "outputs": [],
          "stateMutability": "nonpayable",
          "type": "function"
        },
        {
          "inputs": [],
          "name": "testTransientSlot",
          "outputs": [],
          "stateMutability": "nonpayable",
          "type": "function"
        }
      ],
      "evm": {
        "bytecode": {
          "linkReferences": {},
          "object": "6080604052348015600e575f5ffd5b506040516019906074565b604051809103905ff0801580156031573d5f5f3e3d5ffd5b505f5f6101000a81548173ffffffffffffffffffffffffffffffffffffffff021916908373ffffffffffffffffffffffffffffffffffffffff1602179055506081565b6102f38061095783390190565b6108c98061008e5f395ff3fe608060405234801561000f575f5ffd5b506004361061007b575f3560e01c8063a02649f111610059578063a02649f1146100d7578063a8145aa4146100e1578063a977a973146100eb578063c34c08e5146101095761007b565b80630785abb21461007f5780635ed8766e146100af578063682889d8146100cd575b5f5ffd5b6100996004803603810190610094919061069c565b610127565b6040516100a691906106df565b60405180910390f35b6100b76101f5565b6040516100c491906106df565b60405180910390f35b6100d5610205565b005b6100df61038e565b005b6100e96104bd565b005b6100f3610621565b60405161010091906106df565b60405180910390f35b610111610627565b60405161011e9190610772565b60405180910390f35b5f60028081111561013b5761013a61078b565b5b82600281111561014e5761014d61078b565b5b0361018b5761018461017f7fc8c984d16b278a13ee0a377c1dfa0b250a7bb405b5084114e54b78bc52d1283f61064b565b610654565b90506101f0565b6001600281111561019f5761019e61078b565b5b8260028111156101b2576101b161078b565b5b036101ea576101e07fc8c984d16b278a13ee0a377c1dfa0b250a7bb405b5084114e54b78bc52d1283f61065e565b5f015490506101f0565b60015490505b919050565b5f6102006002610127565b905090565b5f61020e610667565b90508061023a7fc8c984d16b278a13ee0a377c1dfa0b250a7bb405b5084114e54b78bc52d1283f61065e565b5f01819055507fd96380bfdcd65b46c34933d1975be366bab1bf64a46131cc7802bf14f094cc848160405161026f91906106df565b60405180910390a15f5f5f9054906101000a900473ffffffffffffffffffffffffffffffffffffffff1673ffffffffffffffffffffffffffffffffffffffff1663b72c7e8c60016040518263ffffffff1660e01b81526004016102d291906107fe565b6020604051808303815f875af11580156102ee573d5f5f3e3d5ffd5b505050506040513d601f19601f820116820180604052508101906103129190610841565b90505f61033e7fc8c984d16b278a13ee0a377c1dfa0b250a7bb405b5084114e54b78bc52d1283f61065e565b5f018190555081811461038a5780826040517f6ee4988900000000000000000000000000000000000000000000000000000000815260040161038192919061086c565b60405180910390fd5b5050565b5f610397610667565b9050806001819055507fd96380bfdcd65b46c34933d1975be366bab1bf64a46131cc7802bf14f094cc84816040516103cf91906106df565b60405180910390a15f5f5f9054906101000a900473ffffffffffffffffffffffffffffffffffffffff1673ffffffffffffffffffffffffffffffffffffffff1663b72c7e8c5f6040518263ffffffff1660e01b815260040161043191906107fe565b6020604051808303815f875af115801561044d573d5f5f3e3d5ffd5b505050506040513d601f19601f820116820180604052508101906104719190610841565b90508181146104b95780826040517f6ee498890000000000000000000000000000000000000000000000000000000081526004016104b092919061086c565b60405180910390fd5b5050565b5f6104c6610667565b9050610503816104f57fc8c984d16b278a13ee0a377c1dfa0b250a7bb405b5084114e54b78bc52d1283f61064b565b61066e90919063ffffffff16565b7fd96380bfdcd65b46c34933d1975be366bab1bf64a46131cc7802bf14f094cc848160405161053291906106df565b60405180910390a15f5f5f9054906101000a900473ffffffffffffffffffffffffffffffffffffffff1673ffffffffffffffffffffffffffffffffffffffff1663b72c7e8c60026040518263ffffffff1660e01b815260040161059591906107fe565b6020604051808303815f875af11580156105b1573d5f5f3e3d5ffd5b505050506040513d601f19601f820116820180604052508101906105d59190610841565b905081811461061d5780826040517f6ee4988900000000000000000000000000000000000000000000000000000000815260040161061492919061086c565b60405180910390fd5b5050565b60015481565b5f5f9054906101000a900473ffffffffffffffffffffffffffffffffffffffff1681565b5f819050919050565b5f815c9050919050565b5f819050919050565b5f42905090565b80825d5050565b5f5ffd5b60038110610685575f5ffd5b50565b5f8135905061069681610679565b92915050565b5f602082840312156106b1576106b0610675565b5b5f6106be84828501610688565b91505092915050565b5f819050919050565b6106d9816106c7565b82525050565b5f6020820190506106f25f8301846106d0565b92915050565b5f73ffffffffffffffffffffffffffffffffffffffff82169050919050565b5f819050919050565b5f61073a610735610730846106f8565b610717565b6106f8565b9050919050565b5f61074b82610720565b9050919050565b5f61075c82610741565b9050919050565b61076c81610752565b82525050565b5f6020820190506107855f830184610763565b92915050565b7f4e487b71000000000000000000000000000000000000000000000000000000005f52602160045260245ffd5b600381106107c9576107c861078b565b5b50565b5f8190506107d9826107b8565b919050565b5f6107e8826107cc565b9050919050565b6107f8816107de565b82525050565b5f6020820190506108115f8301846107ef565b92915050565b610820816106c7565b811461082a575f5ffd5b50565b5f8151905061083b81610817565b92915050565b5f6020828403121561085657610855610675565b5b5f6108638482850161082d565b91505092915050565b5f60408201905061087f5f8301856106d0565b61088c60208301846106d0565b939250505056fea2646970667358221220614de4482508fe9130467985fb49a1903b80cec7c14f1b9ad9f4a0ede40e1aca64736f6c634300081c00336080604052348015600e575f5ffd5b50335f5f6101000a81548173ffffffffffffffffffffffffffffffffffffffff021916908373ffffffffffffffffffffffffffffffffffffffff1602179055506102988061005b5f395ff3fe608060405234801561000f575f5ffd5b5060043610610029575f3560e01c8063b72c7e8c1461002d575b5f5ffd5b61004760048036038101906100429190610125565b61005d565b6040516100549190610168565b60405180910390f35b5f5f5f9054906101000a900473ffffffffffffffffffffffffffffffffffffffff1673ffffffffffffffffffffffffffffffffffffffff16630785abb2836040518263ffffffff1660e01b81526004016100b791906101f4565b6020604051808303815f875af11580156100d3573d5f5f3e3d5ffd5b505050506040513d601f19601f820116820180604052508101906100f79190610237565b9050919050565b5f5ffd5b6003811061010e575f5ffd5b50565b5f8135905061011f81610102565b92915050565b5f6020828403121561013a576101396100fe565b5b5f61014784828501610111565b91505092915050565b5f819050919050565b61016281610150565b82525050565b5f60208201905061017b5f830184610159565b92915050565b7f4e487b71000000000000000000000000000000000000000000000000000000005f52602160045260245ffd5b600381106101bf576101be610181565b5b50565b5f8190506101cf826101ae565b919050565b5f6101de826101c2565b9050919050565b6101ee816101d4565b82525050565b5f6020820190506102075f8301846101e5565b92915050565b61021681610150565b8114610220575f5ffd5b50565b5f815190506102318161020d565b92915050565b5f6020828403121561024c5761024b6100fe565b5b5f61025984828501610223565b9150509291505056fea2646970667358221220e4f8408e6e1b7cec4d73c64471ce4fde06255232a739626541abaed6f5d5a0d464736f6c634300081c0033",
          "opcodes": "PUSH1 0x80 PUSH1 0x40 MSTORE CALLVALUE DUP1 ISZERO PUSH1 0xE JUMPI PUSH0 PUSH0 REVERT JUMPDEST POP PUSH1 0x40 MLOAD PUSH1 0x19 SWAP1 PUSH1 0x74 JUMP JUMPDEST PUSH1 0x40 MLOAD DUP1 SWAP2 SUB SWAP1 PUSH0 CREATE DUP1 ISZERO DUP1 ISZERO PUSH1 0x31 JUMPI RETURNDATASIZE PUSH0 PUSH0 RETURNDATACOPY RETURNDATASIZE PUSH0 REVERT JUMPDEST POP PUSH0 PUSH0 PUSH2 0x100 EXP DUP2 SLOAD DUP2 PUSH20 0xFFFFFFFFFFFFFFFFFFFFFFFFFFFFFFFFFFFFFFFF MUL NOT AND SWAP1 DUP4 PUSH20 0xFFFFFFFFFFFFFFFFFFFFFFFFFFFFFFFFFFFFFFFF AND MUL OR SWAP1 SSTORE POP PUSH1 0x81 JUMP JUMPDEST PUSH2 0x2F3 DUP1 PUSH2 0x957 DUP4 CODECOPY ADD SWAP1 JUMP JUMPDEST PUSH2 0x8C9 DUP1 PUSH2 0x8E PUSH0 CODECOPY PUSH0 RETURN INVALID PUSH1 0x80 PUSH1 0x40 MSTORE CALLVALUE DUP1 ISZERO PUSH2 0xF JUMPI PUSH0 PUSH0 REVERT JUMPDEST POP PUSH1 0x4 CALLDATASIZE LT PUSH2 0x7B JUMPI PUSH0 CALLDATALOAD PUSH1 0xE0 SHR DUP1 PUSH4 0xA02649F1 GT PUSH2 0x59 JUMPI DUP1 PUSH4 0xA02649F1 EQ PUSH2 0xD7 JUMPI DUP1 PUSH4 0xA8145AA4 EQ PUSH2 0xE1 JUMPI DUP1 PUSH4 0xA977A973 EQ PUSH2 0xEB JUMPI DUP1 PUSH4 0xC34C08E5 EQ PUSH2 0x109 JUMPI PUSH2 0x7B JUMP JUMPDEST DUP1 PUSH4 0x785ABB2 EQ PUSH2 0x7F JUMPI DUP1 PUSH4 0x5ED8766E EQ PUSH2 0xAF JUMPI DUP1 PUSH4 0x682889D8 EQ PUSH2 0xCD JUMPI JUMPDEST PUSH0 PUSH0 REVERT JUMPDEST PUSH2 0x99 PUSH1 0x4 DUP1 CALLDATASIZE SUB DUP2 ADD SWAP1 PUSH2 0x94 SWAP2 SWAP1 PUSH2 0x69C JUMP JUMPDEST PUSH2 0x127 JUMP JUMPDEST PUSH1 0x40 MLOAD PUSH2 0xA6 SWAP2 SWAP1 PUSH2 0x6DF JUMP JUMPDEST PUSH1 0x40 MLOAD DUP1 SWAP2 SUB SWAP1 RETURN JUMPDEST PUSH2 0xB7 PUSH2 0x1F5 JUMP JUMPDEST PUSH1 0x40 MLOAD PUSH2 0xC4 SWAP2 SWAP1 PUSH2 0x6DF JUMP JUMPDEST PUSH1 0x40 MLOAD DUP1 SWAP2 SUB SWAP1 RETURN JUMPDEST PUSH2 0xD5 PUSH2 0x205 JUMP JUMPDEST STOP JUMPDEST PUSH2 0xDF PUSH2 0x38E JUMP JUMPDEST STOP JUMPDEST PUSH2 0xE9 PUSH2 0x4BD JUMP JUMPDEST STOP JUMPDEST PUSH2 0xF3 PUSH2 0x621 JUMP JUMPDEST PUSH1 0x40 MLOAD PUSH2 0x100 SWAP2 SWAP1 PUSH2 0x6DF JUMP JUMPDEST PUSH1 0x40 MLOAD DUP1 SWAP2 SUB SWAP1 RETURN JUMPDEST PUSH2 0x111 PUSH2 0x627 JUMP JUMPDEST PUSH1 0x40 MLOAD PUSH2 0x11E SWAP2 SWAP1 PUSH2 0x772 JUMP JUMPDEST PUSH1 0x40 MLOAD DUP1 SWAP2 SUB SWAP1 RETURN JUMPDEST PUSH0 PUSH1 0x2 DUP1 DUP2 GT ISZERO PUSH2 0x13B JUMPI PUSH2 0x13A PUSH2 0x78B JUMP JUMPDEST JUMPDEST DUP3 PUSH1 0x2 DUP2 GT ISZERO PUSH2 0x14E JUMPI PUSH2 0x14D PUSH2 0x78B JUMP JUMPDEST JUMPDEST SUB PUSH2 0x18B JUMPI PUSH2 0x184 PUSH2 0x17F PUSH32 0xC8C984D16B278A13EE0A377C1DFA0B250A7BB405B5084114E54B78BC52D1283F PUSH2 0x64B JUMP JUMPDEST PUSH2 0x654 JUMP JUMPDEST SWAP1 POP PUSH2 0x1F0 JUMP JUMPDEST PUSH1 0x1 PUSH1 0x2 DUP2 GT ISZERO PUSH2 0x19F JUMPI PUSH2 0x19E PUSH2 0x78B JUMP JUMPDEST JUMPDEST DUP3 PUSH1 0x2 DUP2 GT ISZERO PUSH2 0x1B2 JUMPI PUSH2 0x1B1 PUSH2 0x78B JUMP JUMPDEST JUMPDEST SUB PUSH2 0x1EA JUMPI PUSH2 0x1E0 PUSH32 0xC8C984D16B278A13EE0A377C1DFA0B250A7BB405B5084114E54B78BC52D1283F PUSH2 0x65E JUMP JUMPDEST PUSH0 ADD SLOAD SWAP1 POP PUSH2 0x1F0 JUMP JUMPDEST PUSH1 0x1 SLOAD SWAP1 POP JUMPDEST SWAP2 SWAP1 POP JUMP JUMPDEST PUSH0 PUSH2 0x200 PUSH1 0x2 PUSH2 0x127 JUMP JUMPDEST SWAP1 POP SWAP1 JUMP JUMPDEST PUSH0 PUSH2 0x20E PUSH2 0x667 JUMP JUMPDEST SWAP1 POP DUP1 PUSH2 0x23A PUSH32 0xC8C984D16B278A13EE0A377C1DFA0B250A7BB405B5084114E54B78BC52D1283F PUSH2 0x65E JUMP JUMPDEST PUSH0 ADD DUP2 SWAP1 SSTORE POP PUSH32 0xD96380BFDCD65B46C34933D1975BE366BAB1BF64A46131CC7802BF14F094CC84 DUP2 PUSH1 0x40 MLOAD PUSH2 0x26F SWAP2 SWAP1 PUSH2 0x6DF JUMP JUMPDEST PUSH1 0x40 MLOAD DUP1 SWAP2 SUB SWAP1 LOG1 PUSH0 PUSH0 PUSH0 SWAP1 SLOAD SWAP1 PUSH2 0x100 EXP SWAP1 DIV PUSH20 0xFFFFFFFFFFFFFFFFFFFFFFFFFFFFFFFFFFFFFFFF AND PUSH20 0xFFFFFFFFFFFFFFFFFFFFFFFFFFFFFFFFFFFFFFFF AND PUSH4 0xB72C7E8C PUSH1 0x1 PUSH1 0x40 MLOAD DUP3 PUSH4 0xFFFFFFFF AND PUSH1 0xE0 SHL DUP2 MSTORE PUSH1 0x4 ADD PUSH2 0x2D2 SWAP2 SWAP1 PUSH2 0x7FE JUMP JUMPDEST PUSH1 0x20 PUSH1 0x40 MLOAD DUP1 DUP4 SUB DUP2 PUSH0 DUP8 GAS CALL ISZERO DUP1 ISZERO PUSH2 0x2EE JUMPI RETURNDATASIZE PUSH0 PUSH0 RETURNDATACOPY RETURNDATASIZE PUSH0 REVERT JUMPDEST POP POP POP POP PUSH1 0x40 MLOAD RETURNDATASIZE PUSH1 0x1F NOT PUSH1 0x1F DUP3 ADD AND DUP3 ADD DUP1 PUSH1 0x40 MSTORE POP DUP2 ADD SWAP1 PUSH2 0x312 SWAP2 SWAP1 PUSH2 0x841 JUMP JUMPDEST SWAP1 POP PUSH0 PUSH2 0x33E PUSH32 0xC8C984D16B278A13EE0A377C1DFA0B250A7BB405B5084114E54B78BC52D1283F PUSH2 0x65E JUMP JUMPDEST PUSH0 ADD DUP2 SWAP1 SSTORE POP DUP2 DUP2 EQ PUSH2 0x38A JUMPI DUP1 DUP3 PUSH1 0x40 MLOAD PUSH32 0x6EE4988900000000000000000000000000000000000000000000000000000000 DUP2 MSTORE PUSH1 0x4 ADD PUSH2 0x381 SWAP3 SWAP2 SWAP1 PUSH2 0x86C JUMP JUMPDEST PUSH1 0x40 MLOAD DUP1 SWAP2 SUB SWAP1 REVERT JUMPDEST POP POP JUMP JUMPDEST PUSH0 PUSH2 0x397 PUSH2 0x667 JUMP JUMPDEST SWAP1 POP DUP1 PUSH1 0x1 DUP2 SWAP1 SSTORE POP PUSH32 0xD96380BFDCD65B46C34933D1975BE366BAB1BF64A46131CC7802BF14F094CC84 DUP2 PUSH1 0x40 MLOAD PUSH2 0x3CF SWAP2 SWAP1 PUSH2 0x6DF JUMP JUMPDEST PUSH1 0x40 MLOAD DUP1 SWAP2 SUB SWAP1 LOG1 PUSH0 PUSH0 PUSH0 SWAP1 SLOAD SWAP1 PUSH2 0x100 EXP SWAP1 DIV PUSH20 0xFFFFFFFFFFFFFFFFFFFFFFFFFFFFFFFFFFFFFFFF AND PUSH20 0xFFFFFFFFFFFFFFFFFFFFFFFFFFFFFFFFFFFFFFFF AND PUSH4 0xB72C7E8C PUSH0 PUSH1 0x40 MLOAD DUP3 PUSH4 0xFFFFFFFF AND PUSH1 0xE0 SHL DUP2 MSTORE PUSH1 0x4 ADD PUSH2 0x431 SWAP2 SWAP1 PUSH2 0x7FE JUMP JUMPDEST PUSH1 0x20 PUSH1 0x40 MLOAD DUP1 DUP4 SUB DUP2 PUSH0 DUP8 GAS CALL ISZERO DUP1 ISZERO PUSH2 0x44D JUMPI RETURNDATASIZE PUSH0 PUSH0 RETURNDATACOPY RETURNDATASIZE PUSH0 REVERT JUMPDEST POP POP POP POP PUSH1 0x40 MLOAD RETURNDATASIZE PUSH1 0x1F NOT PUSH1 0x1F DUP3 ADD AND DUP3 ADD DUP1 PUSH1 0x40 MSTORE POP DUP2 ADD SWAP1 PUSH2 0x471 SWAP2 SWAP1 PUSH2 0x841 JUMP JUMPDEST SWAP1 POP DUP2 DUP2 EQ PUSH2 0x4B9 JUMPI DUP1 DUP3 PUSH1 0x40 MLOAD PUSH32 0x6EE4988900000000000000000000000000000000000000000000000000000000 DUP2 MSTORE PUSH1 0x4 ADD PUSH2 0x4B0 SWAP3 SWAP2 SWAP1 PUSH2 0x86C JUMP JUMPDEST PUSH1 0x40 MLOAD DUP1 SWAP2 SUB SWAP1 REVERT JUMPDEST POP POP JUMP JUMPDEST PUSH0 PUSH2 0x4C6 PUSH2 0x667 JUMP JUMPDEST SWAP1 POP PUSH2 0x503 DUP2 PUSH2 0x4F5 PUSH32 0xC8C984D16B278A13EE0A377C1DFA0B250A7BB405B5084114E54B78BC52D1283F PUSH2 0x64B JUMP JUMPDEST PUSH2 0x66E SWAP1 SWAP2 SWAP1 PUSH4 0xFFFFFFFF AND JUMP JUMPDEST PUSH32 0xD96380BFDCD65B46C34933D1975BE366BAB1BF64A46131CC7802BF14F094CC84 DUP2 PUSH1 0x40 MLOAD PUSH2 0x532 SWAP2 SWAP1 PUSH2 0x6DF JUMP JUMPDEST PUSH1 0x40 MLOAD DUP1 SWAP2 SUB SWAP1 LOG1 PUSH0 PUSH0 PUSH0 SWAP1 SLOAD SWAP1 PUSH2 0x100 EXP SWAP1 DIV PUSH20 0xFFFFFFFFFFFFFFFFFFFFFFFFFFFFFFFFFFFFFFFF AND PUSH20 0xFFFFFFFFFFFFFFFFFFFFFFFFFFFFFFFFFFFFFFFF AND PUSH4 0xB72C7E8C PUSH1 0x2 PUSH1 0x40 MLOAD DUP3 PUSH4 0xFFFFFFFF AND PUSH1 0xE0 SHL DUP2 MSTORE PUSH1 0x4 ADD PUSH2 0x595 SWAP2 SWAP1 PUSH2 0x7FE JUMP JUMPDEST PUSH1 0x20 PUSH1 0x40 MLOAD DUP1 DUP4 SUB DUP2 PUSH0 DUP8 GAS CALL ISZERO DUP1 ISZERO PUSH2 0x5B1 JUMPI RETURNDATASIZE PUSH0 PUSH0 RETURNDATACOPY RETURNDATASIZE PUSH0 REVERT JUMPDEST POP POP POP POP PUSH1 0x40 MLOAD RETURNDATASIZE PUSH1 0x1F NOT PUSH1 0x1F DUP3 ADD AND DUP3 ADD DUP1 PUSH1 0x40 MSTORE POP DUP2 ADD SWAP1 PUSH2 0x5D5 SWAP2 SWAP1 PUSH2 0x841 JUMP JUMPDEST SWAP1 POP DUP2 DUP2 EQ PUSH2 0x61D JUMPI DUP1 DUP3 PUSH1 0x40 MLOAD PUSH32 0x6EE4988900000000000000000000000000000000000000000000000000000000 DUP2 MSTORE PUSH1 0x4 ADD PUSH2 0x614 SWAP3 SWAP2 SWAP1 PUSH2 0x86C JUMP JUMPDEST PUSH1 0x40 MLOAD DUP1 SWAP2 SUB SWAP1 REVERT JUMPDEST POP POP JUMP JUMPDEST PUSH1 0x1 SLOAD DUP2 JUMP JUMPDEST PUSH0 PUSH0 SWAP1 SLOAD SWAP1 PUSH2 0x100 EXP SWAP1 DIV PUSH20 0xFFFFFFFFFFFFFFFFFFFFFFFFFFFFFFFFFFFFFFFF AND DUP2 JUMP JUMPDEST PUSH0 DUP2 SWAP1 POP SWAP2 SWAP1 POP JUMP JUMPDEST PUSH0 DUP2 TLOAD SWAP1 POP SWAP2 SWAP1 POP JUMP JUMPDEST PUSH0 DUP2 SWAP1 POP SWAP2 SWAP1 POP JUMP JUMPDEST PUSH0 TIMESTAMP SWAP1 POP SWAP1 JUMP JUMPDEST DUP1 DUP3 TSTORE POP POP JUMP JUMPDEST PUSH0 PUSH0 REVERT JUMPDEST PUSH1 0x3 DUP2 LT PUSH2 0x685 JUMPI PUSH0 PUSH0 REVERT JUMPDEST POP JUMP JUMPDEST PUSH0 DUP2 CALLDATALOAD SWAP1 POP PUSH2 0x696 DUP2 PUSH2 0x679 JUMP JUMPDEST SWAP3 SWAP2 POP POP JUMP JUMPDEST PUSH0 PUSH1 0x20 DUP3 DUP5 SUB SLT ISZERO PUSH2 0x6B1 JUMPI PUSH2 0x6B0 PUSH2 0x675 JUMP JUMPDEST JUMPDEST PUSH0 PUSH2 0x6BE DUP5 DUP3 DUP6 ADD PUSH2 0x688 JUMP JUMPDEST SWAP2 POP POP SWAP3 SWAP2 POP POP JUMP JUMPDEST PUSH0 DUP2 SWAP1 POP SWAP2 SWAP1 POP JUMP JUMPDEST PUSH2 0x6D9 DUP2 PUSH2 0x6C7 JUMP JUMPDEST DUP3 MSTORE POP POP JUMP JUMPDEST PUSH0 PUSH1 0x20 DUP3 ADD SWAP1 POP PUSH2 0x6F2 PUSH0 DUP4 ADD DUP5 PUSH2 0x6D0 JUMP JUMPDEST SWAP3 SWAP2 POP POP JUMP JUMPDEST PUSH0 PUSH20 0xFFFFFFFFFFFFFFFFFFFFFFFFFFFFFFFFFFFFFFFF DUP3 AND SWAP1 POP SWAP2 SWAP1 POP JUMP JUMPDEST PUSH0 DUP2 SWAP1 POP SWAP2 SWAP1 POP JUMP JUMPDEST PUSH0 PUSH2 0x73A PUSH2 0x735 PUSH2 0x730 DUP5 PUSH2 0x6F8 JUMP JUMPDEST PUSH2 0x717 JUMP JUMPDEST PUSH2 0x6F8 JUMP JUMPDEST SWAP1 POP SWAP2 SWAP1 POP JUMP JUMPDEST PUSH0 PUSH2 0x74B DUP3 PUSH2 0x720 JUMP JUMPDEST SWAP1 POP SWAP2 SWAP1 POP JUMP JUMPDEST PUSH0 PUSH2 0x75C DUP3 PUSH2 0x741 JUMP JUMPDEST SWAP1 POP SWAP2 SWAP1 POP JUMP JUMPDEST PUSH2 0x76C DUP2 PUSH2 0x752 JUMP JUMPDEST DUP3 MSTORE POP POP JUMP JUMPDEST PUSH0 PUSH1 0x20 DUP3 ADD SWAP1 POP PUSH2 0x785 PUSH0 DUP4 ADD DUP5 PUSH2 0x763 JUMP JUMPDEST SWAP3 SWAP2 POP POP JUMP JUMPDEST PUSH32 0x4E487B7100000000000000000000000000000000000000000000000000000000 PUSH0 MSTORE PUSH1 0x21 PUSH1 0x4 MSTORE PUSH1 0x24 PUSH0 REVERT JUMPDEST PUSH1 0x3 DUP2 LT PUSH2 0x7C9 JUMPI PUSH2 0x7C8 PUSH2 0x78B JUMP JUMPDEST JUMPDEST POP JUMP JUMPDEST PUSH0 DUP2 SWAP1 POP PUSH2 0x7D9 DUP3 PUSH2 0x7B8 JUMP JUMPDEST SWAP2 SWAP1 POP JUMP JUMPDEST PUSH0 PUSH2 0x7E8 DUP3 PUSH2 0x7CC JUMP JUMPDEST SWAP1 POP SWAP2 SWAP1 POP JUMP JUMPDEST PUSH2 0x7F8 DUP2 PUSH2 0x7DE JUMP JUMPDEST DUP3 MSTORE POP POP JUMP JUMPDEST PUSH0 PUSH1 0x20 DUP3 ADD SWAP1 POP PUSH2 0x811 PUSH0 DUP4 ADD DUP5 PUSH2 0x7EF JUMP JUMPDEST SWAP3 SWAP2 POP POP JUMP JUMPDEST PUSH2 0x820 DUP2 PUSH2 0x6C7 JUMP JUMPDEST DUP2 EQ PUSH2 0x82A JUMPI PUSH0 PUSH0 REVERT JUMPDEST POP JUMP JUMPDEST PUSH0 DUP2 MLOAD SWAP1 POP PUSH2 0x83B DUP2 PUSH2 0x817 JUMP JUMPDEST SWAP3 SWAP2 POP POP JUMP JUMPDEST PUSH0 PUSH1 0x20 DUP3 DUP5 SUB SLT ISZERO PUSH2 0x856 JUMPI PUSH2 0x855 PUSH2 0x675 JUMP JUMPDEST JUMPDEST PUSH0 PUSH2 0x863 DUP5 DUP3 DUP6 ADD PUSH2 0x82D JUMP JUMPDEST SWAP2 POP POP SWAP3 SWAP2 POP POP JUMP JUMPDEST PUSH0 PUSH1 0x40 DUP3 ADD SWAP1 POP PUSH2 0x87F PUSH0 DUP4 ADD DUP6 PUSH2 0x6D0 JUMP JUMPDEST PUSH2 0x88C PUSH1 0x20 DUP4 ADD DUP5 PUSH2 0x6D0 JUMP JUMPDEST SWAP4 SWAP3 POP POP POP JUMP INVALID LOG2 PUSH5 0x6970667358 0x22 SLT KECCAK256 PUSH2 0x4DE4 BASEFEE 0x25 ADDMOD INVALID SWAP2 ADDRESS CHAINID PUSH26 0x85FB49A1903B80CEC7C14F1B9AD9F4A0EDE40E1ACA64736F6C63 NUMBER STOP ADDMOD SHR STOP CALLER PUSH1 0x80 PUSH1 0x40 MSTORE CALLVALUE DUP1 ISZERO PUSH1 0xE JUMPI PUSH0 PUSH0 REVERT JUMPDEST POP CALLER PUSH0 PUSH0 PUSH2 0x100 EXP DUP2 SLOAD DUP2 PUSH20 0xFFFFFFFFFFFFFFFFFFFFFFFFFFFFFFFFFFFFFFFF MUL NOT AND SWAP1 DUP4 PUSH20 0xFFFFFFFFFFFFFFFFFFFFFFFFFFFFFFFFFFFFFFFF AND MUL OR SWAP1 SSTORE POP PUSH2 0x298 DUP1 PUSH2 0x5B PUSH0 CODECOPY PUSH0 RETURN INVALID PUSH1 0x80 PUSH1 0x40 MSTORE CALLVALUE DUP1 ISZERO PUSH2 0xF JUMPI PUSH0 PUSH0 REVERT JUMPDEST POP PUSH1 0x4 CALLDATASIZE LT PUSH2 0x29 JUMPI PUSH0 CALLDATALOAD PUSH1 0xE0 SHR DUP1 PUSH4 0xB72C7E8C EQ PUSH2 0x2D JUMPI JUMPDEST PUSH0 PUSH0 REVERT JUMPDEST PUSH2 0x47 PUSH1 0x4 DUP1 CALLDATASIZE SUB DUP2 ADD SWAP1 PUSH2 0x42 SWAP2 SWAP1 PUSH2 0x125 JUMP JUMPDEST PUSH2 0x5D JUMP JUMPDEST PUSH1 0x40 MLOAD PUSH2 0x54 SWAP2 SWAP1 PUSH2 0x168 JUMP JUMPDEST PUSH1 0x40 MLOAD DUP1 SWAP2 SUB SWAP1 RETURN JUMPDEST PUSH0 PUSH0 PUSH0 SWAP1 SLOAD SWAP1 PUSH2 0x100 EXP SWAP1 DIV PUSH20 0xFFFFFFFFFFFFFFFFFFFFFFFFFFFFFFFFFFFFFFFF AND PUSH20 0xFFFFFFFFFFFFFFFFFFFFFFFFFFFFFFFFFFFFFFFF AND PUSH4 0x785ABB2 DUP4 PUSH1 0x40 MLOAD DUP3 PUSH4 0xFFFFFFFF AND PUSH1 0xE0 SHL DUP2 MSTORE PUSH1 0x4 ADD PUSH2 0xB7 SWAP2 SWAP1 PUSH2 0x1F4 JUMP JUMPDEST PUSH1 0x20 PUSH1 0x40 MLOAD DUP1 DUP4 SUB DUP2 PUSH0 DUP8 GAS CALL ISZERO DUP1 ISZERO PUSH2 0xD3 JUMPI RETURNDATASIZE PUSH0 PUSH0 RETURNDATACOPY RETURNDATASIZE PUSH0 REVERT JUMPDEST POP POP POP POP PUSH1 0x40 MLOAD RETURNDATASIZE PUSH1 0x1F NOT PUSH1 0x1F DUP3 ADD AND DUP3 ADD DUP1 PUSH1 0x40 MSTORE POP DUP2 ADD SWAP1 PUSH2 0xF7 SWAP2 SWAP1 PUSH2 0x237 JUMP JUMPDEST SWAP1 POP SWAP2 SWAP1 POP JUMP JUMPDEST PUSH0 PUSH0 REVERT JUMPDEST PUSH1 0x3 DUP2 LT PUSH2 0x10E JUMPI PUSH0 PUSH0 REVERT JUMPDEST POP JUMP JUMPDEST PUSH0 DUP2 CALLDATALOAD SWAP1 POP PUSH2 0x11F DUP2 PUSH2 0x102 JUMP JUMPDEST SWAP3 SWAP2 POP POP JUMP JUMPDEST PUSH0 PUSH1 0x20 DUP3 DUP5 SUB SLT ISZERO PUSH2 0x13A JUMPI PUSH2 0x139 PUSH2 0xFE JUMP JUMPDEST JUMPDEST PUSH0 PUSH2 0x147 DUP5 DUP3 DUP6 ADD PUSH2 0x111 JUMP JUMPDEST SWAP2 POP POP SWAP3 SWAP2 POP POP JUMP JUMPDEST PUSH0 DUP2 SWAP1 POP SWAP2 SWAP1 POP JUMP JUMPDEST PUSH2 0x162 DUP2 PUSH2 0x150 JUMP JUMPDEST DUP3 MSTORE POP POP JUMP JUMPDEST PUSH0 PUSH1 0x20 DUP3 ADD SWAP1 POP PUSH2 0x17B PUSH0 DUP4 ADD DUP5 PUSH2 0x159 JUMP JUMPDEST SWAP3 SWAP2 POP POP JUMP JUMPDEST PUSH32 0x4E487B7100000000000000000000000000000000000000000000000000000000 PUSH0 MSTORE PUSH1 0x21 PUSH1 0x4 MSTORE PUSH1 0x24 PUSH0 REVERT JUMPDEST PUSH1 0x3 DUP2 LT PUSH2 0x1BF JUMPI PUSH2 0x1BE PUSH2 0x181 JUMP JUMPDEST JUMPDEST POP JUMP JUMPDEST PUSH0 DUP2 SWAP1 POP PUSH2 0x1CF DUP3 PUSH2 0x1AE JUMP JUMPDEST SWAP2 SWAP1 POP JUMP JUMPDEST PUSH0 PUSH2 0x1DE DUP3 PUSH2 0x1C2 JUMP JUMPDEST SWAP1 POP SWAP2 SWAP1 POP JUMP JUMPDEST PUSH2 0x1EE DUP2 PUSH2 0x1D4 JUMP JUMPDEST DUP3 MSTORE POP POP JUMP JUMPDEST PUSH0 PUSH1 0x20 DUP3 ADD SWAP1 POP PUSH2 0x207 PUSH0 DUP4 ADD DUP5 PUSH2 0x1E5 JUMP JUMPDEST SWAP3 SWAP2 POP POP JUMP JUMPDEST PUSH2 0x216 DUP2 PUSH2 0x150 JUMP JUMPDEST DUP2 EQ PUSH2 0x220 JUMPI PUSH0 PUSH0 REVERT JUMPDEST POP JUMP JUMPDEST PUSH0 DUP2 MLOAD SWAP1 POP PUSH2 0x231 DUP2 PUSH2 0x20D JUMP JUMPDEST SWAP3 SWAP2 POP POP JUMP JUMPDEST PUSH0 PUSH1 0x20 DUP3 DUP5 SUB SLT ISZERO PUSH2 0x24C JUMPI PUSH2 0x24B PUSH2 0xFE JUMP JUMPDEST JUMPDEST PUSH0 PUSH2 0x259 DUP5 DUP3 DUP6 ADD PUSH2 0x223 JUMP JUMPDEST SWAP2 POP POP SWAP3 SWAP2 POP POP JUMP INVALID LOG2 PUSH5 0x6970667358 0x22 SLT KECCAK256 0xE4 0xF8 BLOCKHASH DUP15 PUSH15 0x1B7CEC4D73C64471CE4FDE06255232 0xA7 CODECOPY PUSH3 0x6541AB 0xAE 0xD6 CREATE2 0xD5 LOG0 0xD4 PUSH5 0x736F6C6343 STOP ADDMOD SHR STOP CALLER "
        },
        "methodIdentifiers": {
          "executor()": "c34c08e5",
          "read(uint8)": "0785abb2",
          "readTransientValue()": "5ed8766e",
          "storageValue()": "a977a973",
          "testStorage()": "a02649f1",
          "testStorageSlot()": "682889d8",
          "testTransientSlot()": "a8145aa4"
        }
      }
    }
  }
}